:020000040800F2
:100000005008002099010008750D00083D07000800
:100010004107000821060008FD1C00080000000040
:100020000000000000000000000000000D130008A8
:100030002506000800000000F5110008391400082A
:10004000B3010008B3010008B3010008B3010008C0
:10005000B3010008B3010008B3010008B3010008B0
:10006000B3010008B3010008B3010008B3010008A0
:10007000B3010008B3010008B3010008B301000890
:10008000B3010008B3010008B3010008B301000880
:10009000B3010008B3010008B3010008B301000870
:1000A000B3010008F9140008B3010008B301000807
:1000B000B301000805160008B3010008B3010008E9
:1000C000B3010008B3010008B3010008B301000840
:1000D000B301000821190008FD190008911A000851
:1000E000B3010008B3010008B301000800F002F8F2
:1000F00000F042F80AA090E8000C82448344AAF180
:100100000107DA4501D100F037F8AFF2090EBAE87D
:100110000F0013F0010F18BFFB1A43F0010318473B
:10012000642F0000842F0000103A24BF78C878C1E3
:10013000FAD8520724BF30C830C144BF04680C60ED
:10014000704700000023002400250026103A28BF35
:1001500078C1FBD8520728BF30C148BF0B60704739
:10016000642900F04780782900F0AB8000207047B8
:100170001FB51FBD10B510BD00F024FA1146FFF7E2
:10018000F7FF01F0F7FD00F042FA03B4FFF7F2FFCA
:1001900003BC01F0BCFD0000094880470948004746
:1001A000FEE7FEE7FEE7FEE7FEE7FEE7FEE7FEE727
:1001B000FEE7FEE704480549054A064B7047000084
:1001C0003D140008ED0000085002002050080020F7
:1001D0005004002050040020704700000FB4044970
:1001E00010B503AA029800F0CFF910BC5DF814FB1B
:1001F000040000202DE9F04106460024106875290E
:10020000314616A510D0AFF30080002802DA404234
:1002100013A507E031688A0701D512A502E0490756
:1002200004D511A5012401E0AFF3008000210A22CA
:1002300006F1240709E0B0FBF2FCB0FBF2F302FB8D
:100240001C00303078541846491C0028F3D123464E
:100250002A463046BDE8F04100F025B90000000014
:100260002D0000002B00000020000000F0B40D461F
:100270000188090502D5214C7C4402E01F4C7C44D6
:100280000E34002100F1240608E002F00F071209E5
:10029000E75D42EA03721B097754491C52EA0307DF
:1002A000F3D102780023120704D5702D06D009B1CE
:1002B000022311342246F0BC00F0F5B801231034BB
:1002C000F8E770B504460D4621461068AFF300808C
:1002D000024629462046BDE870400023C6E7D21DED
:1002E00022F00703D3E90023C0E70368126843F054
:1002F000200303600823C3610023B7E7CE2D00006D
:100300002DE9F05F894604464FF0000ADFF874B12A
:10031000FB44C0F820A02046E1688847002874D03C
:10032000252806D0D4E901219047206A401C20628C
:10033000F1E700265F462046E16888472028054609
:1003400007DB312D05D2781910F8200C08B10643CF
:10035000F1E7B00701D526F00406C4F81CA0002779
:10036000C4F818A02A2D09D0284601F0C9FC38B3DA
:1003700004EB8708303DC8F8185019E059F8041B01
:10038000204604EB87029161E1688847012F05460A
:1003900018D1E069002820DA26F020061DE0D8F800
:1003A000180000EB800005EB40003038C8F818005A
:1003B0002046E1688847054601F0A2FC0028EED1FE
:1003C000012F0AD02E2D08D12046E16888477F1CD6
:1003D0000546022F46F02006C4DBA069002803DA98
:1003E000404246F00106A061F00701D026F0100659
:1003F0006C2D0BD0682D09D04C2D39D06A2D35D0FD
:10040000742D35D07A2D33D016E038E0E1682F46D0
:1004100020468847B842054609D16C2F26D04FF4B4
:100420008060E168064320468847054604E06C2F5B
:100430001AD04FF4807006430DB3A5F1410019287E
:1004400002D8203546F400664A46294620462660F2
:100450004E46FFF785FE80B101280BD0F61D26F031
:10046000070000F1080956E74020E4E78020D8E7BC
:100470000020D6E706F104094DE7284652E7206A36
:10048000BDE8F09F5E2D00007047704770477047D1
:1004900010B500F08BF8006810BD10B5044600F0F0
:1004A00085F8046010BD2DE9F0470D469946924647
:1004B000044600F124080168880604D5E06921F0AB
:1004C0001001216000E00120A84201DD471B00E08F
:1004D0000027A1697A1902EB0900081AA0612078A7
:1004E000C00602D42046AFF30080002608E0D4E91D
:1004F00001211AF806009047206A401C761C2062F1
:100500004E45F4DB2078C0060AD52046AFF30080C4
:1005100006E0D4E9012130209047206A401C206287
:10052000381EA7F10107F4DC07E0D4E9012118F82F
:1005300005009047206A401C2062281EA5F1010595
:10054000F3DC2046AFF300802078000602D50220BD
:10055000BDE8F0870120FBE701694A1C02610878C9
:10056000704700B58FB0CDE90131002105910549F3
:100570007944CDE9031011466846FFF7C1FE0FB07C
:1005800000BD0000E5FFFFFF074B70B50D467B4443
:10059000FFF7E7FF0446284600F00CF810B14FF0D3
:1005A000FF3070BD204670BDC7170000004870477F
:1005B000F0010020007B00F0800070470048704789
:1005C000F00100207546FFF7F9FFAE4605006946C9
:1005D000534620F00700854618B020B5FFF7EAFD26
:1005E000BDE820404FF000064FF000074FF0000834
:1005F0004FF0000B21F00701AC46ACE8C009ACE8B5
:10060000C009ACE8C009ACE8C0098D46704710B518
:100610000446AFF300802046BDE81040FFF7B5BDAB
:1006200000BFFEE770472DE9F04102460025002695
:10063000002000230024002791F803C00CF00F05D0
:1006400091F803C00CF0100CBCF1000F03D091F82E
:1006500002C04CEA050591F800C0BCF1000F31D092
:10066000146800202BE04FF0010C0CFA00F3B1F8F5
:1006700000C00CEA03069E4220D183004FF00F0C0D
:100680000CFA03F7BC4305FA03FC4CEA040491F8A6
:1006900003C0BCF1280F06D14FF0010C0CFA00FC8E
:1006A000C2F814C00AE091F803C0BCF1480F05D1AC
:1006B0004FF0010C0CFA00FCC2F810C0401C0828D6
:1006C000D1D31460B1F800C0BCF1FF0F34DD546821
:1006D00000202EE000F1080C4FF0010808FA0CF39E
:1006E000B1F800C00CEA03069E4221D183004FF00E
:1006F0000F0C0CFA03F7BC4305FA03FC4CEA0404A4
:1007000091F803C0BCF1280F05D100F1080C08FADC
:100710000CF8C2F8148091F803C0BCF1480F07D15F
:1007200000F1080C4FF0010808FA0CF8C2F810802C
:10073000401C0828CED35460BDE8F08100BFFEE71E
:1007400000BFFEE710B5022000F0DAF910BD00008E
:1007500010B5164802881648018816A0FFF73EFD1E
:100760001248008838B96520114908800F48008870
:10077000401C0E4908800D48008801280BD10C4808
:100780000088002807DD012000F0BAF90848008839
:10079000401E0749088005480088012805D1044803
:1007A000008810B9052000F0ABF910BDA6000020AC
:1007B000A000002025642C202564000010B52A48E4
:1007C000008838B915202949088027480088401C2E
:1007D000254908802448008801280BD12348008837
:1007E000002807DD012000F08BF920480088401E1A
:1007F0001E4908801C48008801280AD11B4800882F
:1008000038B9B5201949088017480088401C164996
:1008100008801548008802280BD114480088002859
:1008200007DD042000F06CF910480088401E0F49D5
:1008300008800D48008802280AD10C48008838B981
:10084000B5200A49088008480088401C06490880ED
:1008500005480088032806D104480088002802DDE6
:10086000052000F04DF910BDA6000020A0000020DA
:1008700010B51748008838B91F2016490880144859
:100880000088401C124908801148008801280BD1BB
:1008900010480088002807DD012000F031F90D48DC
:1008A0000088401E0B49088009480088012807D1AC
:1008B0000848008820B906480088401C0449088080
:1008C00003480088022802D1092000F019F910BD60
:1008D000A6000020A00000202DE9F05F79480088E4
:1008E00058B97948807A79490968401A7849086086
:1008F00074480088401C73490880724800880128A9
:1009000040D17448008802283CD1002071490880F9
:100910006F480068401C6E4908606B49887A01F096
:1009200033FE04460D46694909684943664A927A8E
:10093000674B1B689A1A644B9B7ADFF894C1DCF80A
:1009400000C0ACEB030302FB131001F006FE80466F
:1009500001F012FC064622462B4601F027FD824696
:1009600001F0CCFD5C4908605748807A5749096816
:10097000084457490968884204D152480088401CFD
:10098000504908804F480088022842D151480088C9
:1009900002283ED100204F4908804D480068401E83
:1009A0004B4908604849887A01F0EEFD04460D463F
:1009B000464909684943444A927A454B1B689B1A49
:1009C000414A927ADFF808C1DCF800C0ACEB0202C1
:1009D00003FB121001F0C1FD064601F0CDFB81F0D2
:1009E0000041804622462B4601F0E0FC824601F0A1
:1009F00085FD394908603448807A34490968401ACD
:100A000033490968884204D12E480088401E2D4988
:100A1000088030480088401C2E4908802C48007807
:100A20002E4908702C4800782D4908702D48007810
:100A300018B92D482D49098801802B4800782C4988
:100A40000870294840782B49087008460078FD282E
:100A500003D127480078FD2832D02548007802F0DD
:100A60002FF9044600F0F2F9234908602148007884
:100A700002F026F9044600F059FA204908601C48A3
:100A8000007802F01DF9044600F0C0FA1A4909681E
:100A9000081A194908601748007802F011F904464D
:100AA00000F02EFB15490968081A1449086012481D
:100AB00000F0A4F9114801680F48006800F09CFCA0
:100AC000BDE8F09FA6000020500000209400002008
:100AD00098000020A00000209C0000209000002032
:100AE0009100002016000020A8000020280100200E
:100AF0007C0000207D000020880000208C00002069
:100B000070B504462A4810F814002A49087028488D
:100B100000EB44004078284908702848007818B94C
:100B20002748284909880180254800782649087007
:100B3000234840782549087008460078FD2803D1ED
:100B400021480078FD2832D01F48007802F0B8F81C
:100B5000054600F07BF91E4908601C48007802F049
:100B6000AFF8054600F0E2F91A4908601648007827
:100B700002F0A6F8054600F049FA15490968081A76
:100B8000134908601148007802F09AF8054600F011
:100B9000B7FA10490968081A0E4908600C4800F0B5
:100BA0002DF90C4801680A48006800F025FC70BD6A
:100BB000500000209000002091000020160000202E
:100BC000A8000020280100207C0000207D000020DB
:100BD000880000208C00002070B504460D46274890
:100BE0000470274805702748007818B92648274917
:100BF00009880180244800782549087022484078F7
:100C00002449087008460078FD2803D12048007860
:100C1000FD2832D01E48007802F052F8064600F057
:100C200015F91D4908601B48007802F049F806468E
:100C300000F07CF9194908601548007802F040F886
:100C4000064600F0E3F914490968081A12490860D9
:100C50001048007802F034F8064600F051FA0F49C7
:100C60000968081A0D4908600B4800F0C7F80B48DE
:100C700001680948006800F0BFFB70BD90000020CB
:100C80009100002016000020A8000020280100206C
:100C90007C0000207D000020880000208C000020C7
:100CA000002002490880024908807047A000002007
:100CB000A600002010B52748008838B91F20264913
:100CC000088024480088401C224908802148008868
:100CD00001280BD120480088002807DD0220FFF7FB
:100CE0000FFF1D480088401E1B49088019480088D6
:100CF00001280AD11848008838B9B520164908805B
:100D000014480088401C13490880124800880228B3
:100D10000BD111480088002807DD0620FFF7F0FE00
:100D20000D480088401E0C4908800A4800880228A7
:100D300007D10948008820B906480088401C0549A9
:100D4000088004480088032802D10920FFF7D8FE54
:100D500010BD0000A6000020A000002010B500215A
:100D6000084600F049FB00200149087010BD000052
:100D7000AA0000207047000070B5002100230F2258
:100D8000C47804B3154C246804F4E064C4F5E0644A
:100D9000210AC1F10403CA40447804FA03F18478BB
:100DA0001440214309010E4C0678A155047804F043
:100DB0001F050124AC4005786D11AD0005F1E0255B
:100DC000C5F8004109E0047804F01F050124AC4097
:100DD000044D0678761145F8264070BD0CED00E014
:100DE00000E400E080E100E002490143024A1160B2
:100DF000704700000000FA050CED00E0124B1B7874
:100E00005B4202689A4203DA0F4A12785242026049
:100E10000D4B1B7802689A4202DD0B4A1278026081
:100E2000094B1B785B420A689A4203DA064A127839
:100E300052420A60044B1B780A689A4202DD024A59
:100E400012780A60704700007A0000202DE9F84F00
:100E500005462C48007801F033FF0646294602F08B
:100E600074F8044628480168204602F079F800909A
:100E700021462648006801F0BFFD24490860244946
:100E80002248006801F030FF02D221481F49086063
:100E900020491E48006802F027F802D21D481B496D
:100EA00008601D4801681948006801F051FF1B499E
:100EB0000860154804601A480099006801F048FF6E
:100EC0008246184901F006FE804621461648006811
:100ED00001F03EFF834601F0BFFE642190FBF1FA72
:100EE000504601F0D5FE8146414601F085FD07469A
:100EF0000A480168384601F07FFD064601F0ACFE65
:100F0000BDE8F88F90000020DC000020E000002009
:100F1000000020C200002042B0000020E4000020B9
:100F2000B400002000002041AC0000202DE9F84F63
:100F300005462C48007801F0C3FE0646294602F01B
:100F400004F8044628480168204602F009F8009099
:100F500021462648006801F04FFD244908602449D5
:100F60002248006801F0C0FE02D221481F490860F3
:100F700020491E48006801F0B7FF02D21D481B49F6
:100F800008601D4801681948006801F0E1FE1B492E
:100F90000860154804601A480099006801F0D8FEFE
:100FA0008246184901F096FD8046214616480068A1
:100FB00001F0CEFE834601F04FFE642190FBF1FA72
:100FC000504601F065FE8146414601F015FD074699
:100FD0000A480168384601F00FFD064601F03CFE64
:100FE000BDE8F88F91000020E8000020EC00002010
:100FF000000020C200002042BC000020F0000020C1
:10100000C000002000002041B80000202DE9FC5F56
:10101000054630480168284601F0A2FF074601F066
:101020001BFE06462C490978701A01F031FE044671
:101030002A480168204601F093FF01902146284884
:10104000006801F0D9FC2649086026492448006858
:1010500001F04AFE02D22348214908602249204873
:10106000006801F041FF02D21F481D4908601F4877
:1010700001681B48006801F06BFE1D4908601748B5
:101080000460144805601B480199006801F060FE87
:101090008346194901F01EFD814621461748006824
:1010A00001F056FE009001F0D7FD642190FBF1FBAA
:1010B000584601F0EDFD8246494601F09DFC804610
:1010C0000B480168404601F097FC074601F0C4FD5B
:1010D000BDE8FC9F000100207B000020F400002000
:1010E000F8000020000020C200002042C8000020BC
:1010F000FC000020CC00002000002041C4000020A3
:101100002DE9FC5F054630480168284601F028FFBC
:10111000074601F0A1FD06462C490978701A01F036
:10112000B7FD04462A480168204601F019FF0190E6
:1011300021462848006801F05FFC264908602649DE
:101140002448006801F0D0FD02D2234821490860FC
:1011500022492048006801F0C7FE02D21F481D49FD
:1011600008601F4801681B48006801F0F1FD1D4937
:10117000086017480460144805601B48019900681E
:1011800001F0E6FD8346194901F0A4FC81462146A1
:101190001748006801F0DCFD009001F05DFD64215E
:1011A00090FBF1FB584601F073FD8246494601F081
:1011B00023FC80460B480168404601F01DFC0746B1
:1011C00001F04AFDBDE8FC9F100100207B000020DB
:1011D0000401002008010020000020C2000020427D
:1011E000D40000200C010020D80000200000204185
:1011F000D00000207047000029B1064AD26902439E
:10120000044BDA6104E0034AD2698243014BDA619C
:10121000704700000010024029B1064A926902435B
:10122000044B9A6104E0034A92698243014B9A613C
:10123000704700000010024030B500210022002459
:1012400000232D4D6D6805F00C0121B1042905D056
:10125000082923D105E0294D056022E0274D0560CE
:101260001FE0254D6D6805F47012234D6D6805F47F
:101270008034022505EB92421CB9214D554305608F
:101280000BE01D4D6D6805F400351DB11C4D554337
:10129000056002E0194D5543056002E0174D0560F9
:1012A00000BF00BF144D6D6805F0F0010909154D30
:1012B0006B5C0568DD4045600F4D6D6805F4E061CD
:1012C000090A104D6B5C4568DD4085600A4D6D680C
:1012D00005F46051C90A0B4D6B5C4568DD40C56083
:1012E000054D6D6805F44041890B074D6B5CC56881
:1012F000B5FBF3F5056130BD0010024000127A0025
:1013000000093D001401002024010020704710B5A1
:1013100000F002F810BD00000CB500200190009014
:101320003348006840F480303149086000BF3048DD
:10133000006800F4003000900198401C0190009873
:1013400018B90198B0F5A06FF1D12948006800F4F0
:10135000003010B10120009001E0002000900098C2
:10136000012843D12348006840F01000214908605B
:101370000846006820F0030008600846006840F056
:10138000020008601A4840681949486008464068E9
:1013900048600846406840F48060486008464068FD
:1013A00020F47C1048600846406840F4E81048602B
:1013B0000846006840F08070086000BF0C48006874
:1013C00000F000700028F9D00948406820F00300C0
:1013D000074948600846406840F00200486000BF86
:1013E0000348406800F00C000828F9D10CBD00004B
:1013F000001002400020024000F18702034B1A80D7
:1014000001F198021B1D1A8070470000340400404F
:10141000042808D14FF0E021096941F004014FF0A0
:10142000E022116107E04FF0E021096921F0040199
:101430004FF0E022116170477047000010B513486B
:10144000006840F0010011490860084640681049F2
:1014500008400E494860084600680E4908400B499C
:1014600008600846006820F480200860084640684C
:1014700020F4FE0048604FF41F008860FFF747FF2C
:101480004FF000600449086010BD000000100240E9
:101490000000FFF8FFFFF6FE08ED00E07FB505460F
:1014A0000C460121C802FFF7B7FEADF80850ADF8B1
:1014B00004400020ADF80A00ADF8060001A90D486F
:1014C00000F0DCF9012211460A4800F017F9192052
:1014D0008DF8000000208DF8010001208DF8020039
:1014E0008DF803006846FFF747FC0121014800F032
:1014F000E8F87FBD002C014010B501213D4800F007
:10150000ECF8002874D03C480078172847D014DC49
:101510000B2833D008DC012824D0022825D003284A
:1015200026D004285ED126E00C282AD00D282BD006
:1015300015282CD0162855D12DE01C2843D008DCC6
:10154000182830D0192832D01A2834D01B2849D175
:1015500035E01D283BD01E283DD0642842D1FFF73E
:10156000FDFB40E0FFF7EEF83DE0FFF7F1F83AE071
:10157000FFF724F937E0FFF77BF934E0FFF79AFB38
:1015800031E0FFF797FB2EE0FFF7A6F92BE00120F3
:10159000FFF7B6FA27E00220FFF7B2FA23E00320B4
:1015A000FFF7AEFA1FE00420FFF7AAFA1BE00520C0
:1015B000FFF7A6FA17E00620FFF7A2FA13E00720CC
:1015C000FFF79EFA0FE00820FFF79AFA0BE00920D8
:1015D000FFF796FA07E00948017809480078FFF715
:1015E000FBFA00E000BF00BF0121024800F066F8EE
:1015F00010BD0000002C0140AA0000209300002034
:101600009200002010B50121044800F066F818B1DE
:101610000121024800F052F810BD00000004004013
:1016200030B589B005460C4601210220FFF7E4FDE4
:1016300001210520FFF7F0FDC020ADF820001820A3
:101640008DF8230003208DF8220008A91948FEF721
:10165000EAFFADF81850ADF814400020ADF81A00BC
:10166000ADF8160005A9144800F008F96020ADF89F
:1016700004000120ADF8060040F2EE20ADF80A00AB
:101680000020ADF80C0001A90B4800F041F801A9B9
:10169000094800F093F80821074800F085F8082170
:1016A000054800F0DDF80121034800F00AF809B010
:1016B00030BD00000008014000040040CA4302821F
:1016C000704721B1028842F00102028004E00288E2
:1016D0004FF6FE731A400280704730B50246002074
:1016E00000230024158A05EA0103958905EA01040F
:1016F00013B10CB1012000E0002030BD1AB1838984
:101700000B43838102E083898B4383817047000010
:1017100070B5002400220023058C4FF6FE7635407C
:101720000584028C8388048B4FF68F752C40B51E80
:101730002C400D882C43751E2A400D892A434D8864
:101740002A43144DA8420BD0134DA84208D0134D84
:10175000A84205D0124DA84202D0124DA84213D182
:101760004FF6F7752A404D892A434FF6FB752A40FC
:101770008D882A434FF6FF652B404FF6FF552B40CF
:101780008D892B43CD892B4383800483CD88858627
:10179000028470BD002C0140003401400040014033
:1017A00000440140004801400A460021018B4FF6E9
:1017B000F7731940114301837047000070B500248E
:1017C00000220023058C4FF6EF7635400584028C0D
:1017D0008388048B48F6FF752C404FF6FF452C405C
:1017E0000D884FF6FF7606EA05252C434FF6DF7588
:1017F0002A400D8906EA05152A434D8806EA051593
:101800002A43154DA84202D0144DA8421DD14FF6CF
:101810007F752A404D894FF6FF7606EA05152A4363
:101820004FF6BF752A408D8806EA05152A434FF604
:10183000FF352B404FF2FF752B408D8906EA850559
:101840002B43CD8906EA85052B4383800483CD880D
:101850000587028470BD0000002C01400034014067
:101860000A460021018B4FF2FF7319404FF6FF73B8
:1018700003EA022319430183704700000022028813
:101880001D4B98420ED01D4B98420BD0B0F1804FAB
:1018900008D01B4B984205D01A4B984202D01A4BE5
:1018A000984204D14FF68F731A404B881A43174B56
:1018B000984207D0164B984204D04FF6FF431A4087
:1018C000CB881A4302808B8883850B8803850A4B5B
:1018D00098420BD0094B984208D00E4B984205D045
:1018E0000D4B984202D00D4B984201D10B7A0386E2
:1018F0000123838270470000002C01400034014026
:101900000004004000080040000C004000100040AF
:1019100000140040004001400044014000480140E4
:1019200010B540F225512D4800F02CF9002853D075
:101930002A49091D0988C8B22949097869B929497C
:101940000978FE2909D128490978FF2905D1012103
:10195000234A11700021254A117021490978012973
:1019600033D1FD2806D12249097819B90121204A2D
:1019700011702AE01E490978012913D11D491B4A1B
:101980001278885419490978491C184A117011466F
:101990000978022919D10021114A11700121164A32
:1019A000117012E01349114A127888540F490978CE
:1019B000491C0E4A117011460978012905D10021F0
:1019C000074A117001210C4A117006490978064A2C
:1019D00011700449087000BF10BD000000380140BC
:1019E0000A00002012000020130000201100002037
:1019F000100000200C0000200B00002010B540F269
:101A000025511D4800F0BEF820B91B48008800F0A1
:101A1000080078B31849091D0988C8B21749097820
:101A200069B917490978FE2909D116490978FF29AA
:101A300005D10121114A11700021134A11700F497B
:101A4000097801290FD111490F4A127888540E499B
:101A50000978491C0C4A117011460978022902D1F3
:101A60000021064A117006490978064A1170044996
:101A7000087000BF10BD00000044004016000020A8
:101A80001800002019000020170000202801002065
:101A900010B540F225512D4800F074F8002853D0BD
:101AA0002A49091D0988C8B22949097869B929490B
:101AB0000978FE2909D128490978FF2905D1012192
:101AC000234A11700021254A117021490978012902
:101AD00033D1FD2806D12249097819B90121204ABC
:101AE00011702AE01E490978012913D11D491B4AAA
:101AF0001278885419490978491C184A11701146FE
:101B00000978022919D10021114A11700121164AC0
:101B1000117012E01349114A127888540F4909785C
:101B2000491C0E4A117011460978012905D100217E
:101B3000074A117001210C4A117006490978064ABA
:101B400011700449087000BF10BD0000004800403B
:101B50001C0000202400002025000020230000207D
:101B6000220000201E0000201D00002021B18289DB
:101B700042F40052828104E082894DF6FF731A40DC
:101B80008281704770B502460024002300250020A2
:101B900040F66A16B14200D100BFC1F3421501F010
:101BA0001F03012606FA03F3012D02D19689334063
:101BB00006E0022D02D1168A334001E0968A3340B6
:101BC0000C12012606FA04F41688344013B10CB145
:101BD000012000E0002070BDF0B50346002400267F
:101BE0000025002040F66A17B94200D100BF184610
:101BF000C1F3421401F01F06012707FA06F5012C74
:101C000001D10C3004E0022C01D1103000E014307E
:101C10001AB107682F43076002E00768AF43076007
:101C2000F0BD00002DE9F04786B005460E460024C1
:101C3000A24600BFA1460027B08900B100BF2F46D1
:101C40002C8A4CF6FF700440F08804432C82AC8947
:101C50004EF6F3100440B088318908437189084377
:101C60000443AC81AC8A4FF6FF400440B089044382
:101C7000AC8201A8FFF7E0FA1F48874202D1DDF8E5
:101C800010A001E0DDF80CA0A88900F4004040B1EC
:101C90000AEBCA0000EB0A1031684900B0FBF1F80A
:101CA00007E00AEBCA0000EB0A1031688900B0FBBC
:101CB000F1F86420B8FBF0F004012009642101FB75
:101CC0001089A88900F4004040B1322000EBC9001F
:101CD000B0FBF1F000F00700044308E0322000EB15
:101CE00009106421B0FBF1F000F00F0004432C81D7
:101CF00006B0BDE8F08700000038014000BFFEE7F5
:101D000030380A2801D20120704700207047014670
:101D100000BF704710B56FF00400FFF779FB0A4869
:101D200000680A49B0FBF1F00949087008460078DC
:101D300000EB4001C1EBC0104FF6FF7101EAC0009B
:101D40000449088010BD00002800002000127A001D
:101D5000000000200200002000BF054A128802F0A7
:101D60004002002AF9D0C2B2014B1B1D1A807047F5
:101D7000003801404FF4A060FFF736F8FFF7CAFFC4
:101D80004FF4E13000F0C2FA4FF4E13000F01AFAFB
:101D90004FF4165000F066FA41F61F419620FFF707
:101DA0007DFB40F21F314FF4E160FFF739FC002169
:101DB0000846FFF721FBCAA0FEF710FA8FE1CB48D7
:101DC0000078012874D1CA48CA4909680160CA4824
:101DD000007800286DD1C6480078C84908700846C8
:101DE0000178C7A0FEF7FAF9C4480078212853D03B
:101DF00013DC042832D007DCC0B101281CD0022833
:101E000020D0032874D123E005282DD0062831D016
:101E1000072835D0202878D138E02238082874D215
:101E2000DFE800F040484E545A60676DFEF738FF17
:101E30006420B749087069E0FEF732FF0120B44919
:101E4000087063E0FEF72CFF0220B14908705DE0E6
:101E5000FEF726FF0320AE49087057E0FEF720FF8B
:101E60000420AB49087051E0FEF71AFF0B20A84987
:101E700008704BE0FEF714FF0C20A549087045E000
:101E8000FEF70EFF0D20A24908703FE0FEF708FFA5
:101E900014209F49087039E0FEF702FF15209C4985
:101EA000087033E0FEF7FCFE1620994908702DE01B
:101EB0004DE030E0FEF7F4FE17209549087025E06C
:101EC000FEF7EEFE1820924908701FE0FEF7E8FECC
:101ED00019208F49087019E0FEF7E2FE1A208C499C
:101EE000087013E0FEF7DCFE1B20894908700DE046
:101EF0000BE0FEF7D5FE1C208549087006E0FEF7D2
:101F0000CFFE1D208249087000E000BF00BF6420A2
:101F10007A49087016E078480078012812D1744890
:101F200000787C490870724840787B490870FEF759
:101F3000B7FE1E20764908706D484278017877A078
:101F4000FEF74CF900206C490870684908707A481F
:101F50000078012874D17948794909680160794885
:101F6000007800286DD175480078774908700846D8
:101F7000017876A0FEF732F973480078212853D013
:101F800013DC042832D007DCC0B101281CD00228A1
:101F900020D0032874D123E005282DD0062831D085
:101FA000072835D0202878D138E02238082874D284
:101FB000DFE800F040484E545A60676DFEF770FE4F
:101FC00064205349087069E0FEF76AFE0120504919
:101FD000087063E0FEF764FE02204D4908705DE082
:101FE000FEF75EFE03204A49087057E0FEF758FEF0
:101FF00004204749087051E0FEF752FE0B20444987
:1020000008704BE0FEF74CFE0C204149087045E09B
:10201000FEF746FE0D203E4908703FE0FEF740FE09
:1020200014203B49087039E0FEF73AFE1520384984
:10203000087033E0FEF734FE1620354908702DE0B5
:102040004DE030E0FEF72CFE17203149087025E006
:10205000FEF726FE18202E4908701FE0FEF720FE2E
:1020600019202B49087019E0FEF71AFE1A2028499A
:10207000087013E0FEF714FE1B20254908700DE0E0
:102080000BE0FEF70DFE1C202149087006E0FEF76C
:1020900007FE1D201E49087000E000BF00BF64203D
:1020A0002949087016E027480078012812D12348F2
:1020B0000078184908702148407817490870FEF7E1
:1020C000EFFD1E20124908701C484278017823A0B9
:1020D000FEF784F800201B490870174908706EE667
:1020E000B3F5CABCBBAFCDEAB3C90A000B000020F0
:1020F000440000200C000020100000204C000020B4
:10210000CAD5B5BD7531D6B8C1EEA3BA25780A00D7
:10211000AA0000209200002093000020D2A1B8CB9A
:10212000B6A8B5E3C4A3CABD5B783A25642C207970
:102130003A25645D000000001D00002048000020DA
:102140001E000020220000204D000020CAD5B5BD91
:102150007533D6B8C1EEA3BA25780A007533D2A17B
:10216000B8CBB6A8B5E3C4A3CABD5B783A25642C46
:1021700020793A25645D00002DE9F04106460F46BE
:1021800000F06AFA041E0D4618BF0120284320F013
:102190000040C0F17F6000F1E040C00F0ED0301C65
:1021A00018BF0120384320F00040C0F17F6000F1EB
:1021B000E040C00F04BF0120FEF76FF9204629461A
:1021C000BDE8F08110B586B0044601210520FFF777
:1021D00023F801214804FFF70FF80420ADF814009C
:1021E00003208DF8160018208DF8170005A91B484C
:1021F000FEF719FA0820ADF8140004208DF8170036
:1022000005A91648FEF70FFA26208DF800000120D8
:102210008DF801008DF802008DF803006846FEF786
:10222000ABFD01940020ADF80800ADF80A00ADF850
:102230000C00ADF810000C20ADF80E0001A9084804
:10224000FFF7F0FC012240F225510548FFF7C4FCDE
:1022500001210348FFF78AFC06B010BD00080140C9
:102260000044004010B586B0044601210920FEF765
:10227000D3FF01218804FEF7BFFF4FF48060ADF863
:10228000140001208DF8160018208DF8170005A9FC
:102290001C48FEF7C8F94FF40060ADF814000420A4
:1022A0008DF8170005A91748FEF7BDF927208DF80E
:1022B000000003208DF8010002208DF802000120AB
:1022C0008DF803006846FEF757FD01940020ADF835
:1022D0000800ADF80A00ADF80C00ADF810000C20B5
:1022E000ADF80E0001A90848FFF79CFC012240F25E
:1022F00025510548FFF770FC01210348FFF736FC24
:1023000006B010BD000C01400048004010B586B07A
:102310000446012144F20400FEF77EFF4FF40070F2
:10232000ADF8140003208DF8160018208DF8170062
:1023300005A91C48FEF777F94FF48060ADF814004A
:1023400004208DF8170005A91648FEF76CF9252022
:102350008DF8000003208DF801008DF802000120A7
:102360008DF803006846FEF707FD01940020ADF8E4
:102370000800ADF80A00ADF80C00ADF810000C2014
:10238000ADF80E0001A90848FFF74CFC012240F20D
:1023900025510548FFF720FC01210348FFF7E6FB24
:1023A00006B010BD000801400038014010B591EAA8
:1023B000030F48BF83F0004300F13C82841A71EBA5
:1023C000030C05D2121943EB0C03001B61EB0C014B
:1023D000DFF824E14FEA1154A4EB135C1EEA430F2B
:1023E00018BF9EEA445F73D023EA0E03DCF1200E8F
:1023F00021EA045143F4801332D322FA0CFE10EB8D
:102400000E0023FA0CFE41EB0E01CCF1200E03FA74
:102410000EFE10EB0E0051F10001B1F5801FCCF162
:10242000200E32D201EB045112FA0EF2BDE8104038
:1024300058BF7047401C38BF5FEA420218BF704760
:10244000002814BF20F0010041F100014FEA4103D0
:1024500013F5001F38BF7047A1F1C04100F0F5B877
:10246000012A43EB0302ACF1200CDCF11F0E32BF5A
:102470004FF0000E23FA0CF310EB030041EB045174
:10248000B4EB115FD0D0A1EB045101F580114908E4
:102490005FEA300001EB04510ED350F1000038BF69
:1024A00012FA0EFE08D1BDE81040C9E7401C38BF43
:1024B0005FEA4202CAD1C3E7BDE810404FEA4103D8
:1024C00013F5001F38BF7047A1F1C04100F0BDB83F
:1024D0009EEA445F08D011EA5E0FBDE8104004BFD9
:1024E00001F0004100207047BDE8104070B500F0D9
:1024F0005EF800BF64FBBE3E0000E0FF4FEA410310
:102500004FEA5353A3F58063D3F11E03C8BFD3F141
:10251000210C0CDD4FF0004242EAC12242EA505247
:1025200032FA03FC8CEAE17CACEBE1707047102BD3
:10253000C4BF0020704703F5787CBCF1FF3F04D096
:102540006FF0004282EA2100704770B500F02FF86A
:102550004992248000207047F2E710F0004248BF03
:102560004042B0FA80F310FA03F10AD0C3F11D0320
:1025700003F580634FEA415002EB035202EBD12195
:1025800070474FF000007047B0FA80F310FA03F183
:102590000AD0C3F11D0303F580634FEA41504FEAAF
:1025A000035202EBD12170474FF0000070470EF14B
:1025B000020E2EF0030E5EF8046B364205D4012A9B
:1025C00043EB030515F5001F12D8012841EB010C60
:1025D0001CF5001F0CD80ED14FEAD17C15F5001F59
:1025E0000CEB4C0C0CF1020C08BF4CEBD37C04E060
:1025F0004FF0080C01E04FEAD37C0CEB4C0526FAB7
:1026000005F606F00706B6F1040C06D20EEB860CB2
:10261000BDE870404CF0010C6047DFE80CF0090B9E
:1026200002024FF000414FF00000A1F5002170BD03
:1026300019461046012851EB010418BFD4F50014C7
:1026400084BF002001F0004170BD0808A0F5001112
:102650004FEA3101704700002DE9F04101F5801C7F
:10266000BCF5001FC0F2C3804FEA115C21EA0C5197
:102670000CF1FD0C41F480115FEA5C0C0CF5C07CA0
:1026800001D3400049413DA4890241EA90518702AB
:102690008E0E0A0CA45D04FB04F602FB06F6C6F1DE
:1026A0004046A4FB0662F60D46EA422606FB06F407
:1026B000A4FB01235242C3F1404338BF5B1EA6FB7B
:1026C00002420024E6FB0324D20B42EA4446A6FB66
:1026D0000623A1FB02E2A3FB07E4A4184FF00002CB
:1026E00052F10002E3FB01426442C2F1404E38BFA6
:1026F000AEF1010EA6FB04234FF00002E6FB0E3202
:10270000A2FB03464FF00004B61954F10004E2FBAB
:102710000264A1FB06E6A4FB07E816EB08064FF0EF
:10272000000858F10008E4FB01687642C8F14058FF
:1027300038BFA8F10108A2FB06E4A3FB08E52D19A8
:102740004FF0000454F10004E2FB0854A1FB05E63D
:10275000A7FB04E818EB06084FF0000656F1000648
:10276000E1FB048618F1200556F10006A809A8F13E
:102770001B08B10908F03F08B8F10A0F40EA86606B
:102780001CD901EB0C51BDE8F08100BFFCF5EEE86F
:10279000E2DDD8D3CFCBC7C3C0BDB9B6B4B1AEAC00
:1027A000A9A7A5A3A19F9D9B9A9896959392908F78
:1027B0008D8C8B898887868584838281A0FB0068C5
:1027C00000FB01F208EB4208B8EB872807D5341864
:1027D00058EB0104D5D5401C51F10001D1E7341A62
:1027E00078EB0104CDD4401E71F10001C9E75FEA26
:1027F0004C0C5FEA9C5C0DD105D34FF0000001F05A
:102800000041BDE8F081BDE8F04170B5FFF7CFFEB3
:102810006DDBFFBEBDE8F0414FF00000004970479E
:102820000000F87F10B591EA030F48BF83F0004322
:102830003FF5C4AD841A71EB030C07D212198CF06A
:10284000004C43EB0C03001B61EB0C01DFF8A4E12F
:102850004FEA1154A4EB135C1EEA430F18BF9EEA23
:10286000445F00F0B08023EA6E03524221EA045133
:10287000C3EB6E0338BF5B1EDCF1200E25D322FABA
:102880000CFE10EB0E0043FA0CFE41EB0E01CCF1F6
:10289000200E03FA0EFE10EB0E0051F10001CCF1F8
:1028A000200E29D412FA0EF201EB0451BDE81040BB
:1028B00058BF7047401C1CBFB2F1004F7047002842
:1028C0000CBF491C20F00100704712EB020E43EBD5
:1028D000030218BF4FF0010E4EEA4202ACF1200C89
:1028E000DCF11E0E54D943FA0CFE10EB0E0051F130
:1028F000FF31CCF11E0ED5D50EF1010E12FA0EFEEF
:10290000404141EB010101EB445C5FEA5C5C10D9A2
:1029100010EBDE7001EB045138BFBEF1004FBDE893
:10292000104018BF704700280CBF491C20F0010060
:10293000704730D24FEAD42C11F5001124F4006412
:102940001BD0B1FA81F20B3AA41AA41ED2F12003D3
:10295000914030FA03F31943904001EBCC71002C05
:1029600001EB0451BDE81040A8BF704701F1C04120
:102970004FF0000001F000417047B0FA80F310FA08
:1029800003F100D110BDE41A173C4805C90AE4E779
:1029900001EB045110BD491001EB0451BDE810409A
:1029A0004FEA300002E04FF0000170474A0008BFD4
:1029B0000042F8D0B2F5001F28BF704701F0004177
:1029C0004FF0000070479EEA445F07D011EA5E0FA7
:1029D000BDE8104004BF002100207047BDE8104052
:1029E00070B5FFF7E4FD00BF40DFF63E83F0004125
:1029F000104670470000E0FF90EA010F48BF81F0E9
:102A0000004100F1B482421A3CBF801A89184FEA93
:102A1000D0524FF07F4C1CEA410FA2EBD15318BFAC
:102A20009CEA026F00F03B804FF0004C4CEA002023
:102A30004CEA012121FA03FC10EB0C0C1ED202F12E
:102A4000FF325FEA1C2040EBC25038BF70471CF0D9
:102A50007F0F4FEA400C18BFBCF17F4F38BF704763
:102A6000C3F12003994008BF20F00100BCF17F4F63
:102A700038BF7047A0F1C04000F031BA4FEA3C00C7
:102A8000000A40EBC25028BF1CF0FF0F4FEA400C79
:102A9000E6D018BFBCF17F4F38BF7047EAE79CEA29
:102AA000026F05D010EA5C0F08BF00F000407047CD
:102AB00010B500F0CEF900BF64FBBE3E401058BF19
:102AC000C0F14040491058BFC1F140418142EFF38D
:102AD000008070474FF47F0C1CEAD0121EBF1CEA26
:102AE000D11392EA0C0F93EA0C0F00F0858090EA64
:102AF000010F48BF42F4807240F4000C41F4000022
:102B00002CF07F4120F07F4000B58142A2EB030210
:102B10000FF2081CACEB504EC0F100009EF800E034
:102B20004FEA4E0E00FB0EFC38BF49004FEA2C1C4A
:102B300002F5FA020CFB0EF34FEACE1E4FEA112CFF
:102B40004FEAC1210EEB635E42EB22420EFB0CFC0E
:102B50004FEA1C5300FB03114FEA112C4FEA0131DD
:102B60000EFB0CFC4FEADC4C00FB0C11C14228BFF1
:102B700009184CEB03335DF804EB10EB410143EB18
:102B8000C250B2F57C0F38BF704729D512F0F00F54
:102B90001CBF00F1C04000F00040704700818283FC
:102BA0008485868788898B8C8D8E8F91929395965C
:102BB00097999A9C9D9FA0A2A3A5A7A8AAACAEB0E6
:102BC000B2B3B5B7B9BCBEC0C2C5C7C9CCCED1D4EB
:102BD000D7D9DCDFE2E6E9ECF0F3F7FAFE0000001B
:102BE0004FEA400C0CF1807CBCF17E4F28BF70474F
:102BF000B0F1C04000F073B990EA010F0CEAD113B4
:102C000048BF42F48072624538BF634507D213F46F
:102C10007F0F16D080EA010000F00040704710B529
:102C200000F017F9097EFC3E00F005B880EA0100CB
:102C300000F00040704780EA010000F0004000F022
:102C40004EB912F47F0F04BF0248704780EA0100BA
:102C500000F045B90000C07F41000B0ED3F19E0289
:102C600008D950F400034FEA032323FA02F048BFC7
:102C70004042704710B500F0ECF800BF4992248044
:102C8000002070476FF0004282EA20007047000089
:102C900010F0004148BF4042B0FA80F310FA03F24E
:102CA000C3F19D030BD051EAC35101EB122053062F
:102CB00038BF704700F1010008BF20F001007047E5
:102CC000B0FA80F310FA03F2C3F19D030AD0D905DC
:102CD00001EB1220530638BF704700F1010008BF16
:102CE00020F001007047000050EA010C00F1138051
:102CF0001CF5000F58BFBCF5000F01D48842704787
:102D000007D710F5000F58BF11F5000F15D48842F2
:102D10007047894270471CF5000F04D5BCF5000FC1
:102D2000F7D5814270474FF0807C1CEB400F38BFD5
:102D30001CEB410F01D28142704710B500F089F8B9
:102D4000922449004FF000504FF08051FFF7B6BE7B
:102D50004FF47F0C1CEAD0121EBF1CEAD11392EA7A
:102D60000C0F93EA0C0F00F0478090EA010F48BF68
:102D700042F480724FF0004C4CEA00204CEA0121F2
:102D800002EB0302A0FB0113A2F50002002918BF09
:102D900043F001035B0028BF4FEA330342EB2242BA
:102DA0005FEA132C4CEBC2502EBFBCEB436FB2F565
:102DB0007C0F70474FEA036CBCF1004F08BF20F056
:102DC0000100B2F57C0F38BF70470BD582F0FF02CF
:102DD00012F5803FC8BF704700F1C040D8BF00F077
:102DE0000040704700F5000C5FEA4C0C48BF70478C
:102DF000B0F1C04000F073B890EA010F0CEAD113B3
:102E000048BF42F48072624538BF634504D280EA0D
:102E1000010000F00040704710B500F01AF800BF44
:102E20008900013E00F007B800F009B85FEA410CE4
:102E30005FEA1C6C08D080EA010000F050B85FEA3D
:102E4000400C5FEA1C6CF6D14FF00040A0F580000A
:102E500070470EF1020E2EF0030E5EF8044B244272
:102E600004D44FEA4102B2F17F4F11D84FEA400338
:102E7000B3F17F4F0CD80ED14FEAD07CB2F17F4F27
:102E80000CEB4C0C0CF1020C08BF4CEBD17C04E0B9
:102E90004FF0080C01E04FEAD17C0CEB4C0324FA14
:102EA00003F404F00704B4F1040C06D20EEB840C16
:102EB000BDE810404CF0010C6047DFE80CF007085B
:102EC00002024FF00040A0F5800010BD084642000D
:102ED00018BFD2F1807288BF00F0004010BDFF2102
:102EE00041EAD050C005704751EA000C00F1138050
:102EF0001CF5000F58BFBCF5000F01D4814270478C
:102F000007D711F5000F58BF10F5000F15D48142F7
:102F10007047894270471CF5000F04D5BCF5000FBF
:102F2000F7D5884270474FF0807C1CEB410F38BFCB
:102F30001CEB400F01D28842704780EA010081EA11
:102F4000000180EA0100FFF7F8BE80F0004090EA3F
:102F5000010F7FF558AD81F0004100F008B8000086
:102F600090EA010F48BF81F000413FF54CAD421A95
:102F700004D882F00042A0EB020011444FEAD05284
:102F80004FF07F4C1CEA410FA2EBD15318BF9CEAD3
:102F9000026F4AD04FF0004C4CEA00204CEA01216D
:102FA00021FA03FCB0EB0C0C0FD412F0FE0F36D05C
:102FB0005FEA4C001DD5001240EBC25038BF70478D
:102FC0001CF03F0F18BF70470BE0A2F101025FEA4F
:102FD0001C2040EBC25038BF70471CF07F0F18BF59
:102FE0007047C3F12003994014BF401E20F0010038
:102FF000704780084FEA122308BF7047B0FA80FC80
:10300000A2EB0C02CCF1280C60FA0CF093EA122F20
:1030100004BF00EBC25070474FEAC3707047130AF9
:103020005FEADC1008BF7047F6E79CEA026F04D045
:1030300010EA5C0F08BF0020704710B5FFF709FFCA
:1030400040DFF63E81F00040704730313233343596
:1030500036373839414243444546403058003031D4
:1030600032333435363738396162636465664030EF
:1030700078000400000800000000000000020001C9
:1030800000001000A430000800000020280100000B
:1030900028010008CC310008280100202807000082
:1030A00044010008000000000000000000000000D3
:1030B0000000000000000000000000000000000010
:1030C00000000000000000000000000000A24A0410
:1030D00000000000000000000102030406070809C8
:1030E000FEFF0000000000000000000000000000E3
:1030F00025250000000028237323BE232D6E756E46
:10310000BE6E2DB978B9C1B9000078329650B46E50
:10311000968C78AA5A8C3C6E5A50000000003C19DC
:10312000000000000000000000000000000000009F
:10313000000000000000000032000000000000005D
:10314000000000000000320000000000000000004D
:103150000000A041CDCCCC3D000011430000A041B7
:10316000CDCCCC3D00001643000020C10000000083
:1031700000004842000000C10000000000005C4266
:10318000000000000000000000000000000000003F
:10319000000000000000000000000000000000002F
:1031A000000000000000000000000000000000001F
:1031B0000000000000000000000000000102030405
:0C31C000010203040607080902040608C7
:04000005080000ED02
:00000001FF
